{
    "_format": "hh-sol-artifact-1",
    "contractName": "Domains",
    "sourceName": "contracts/Domains.sol",
    "abi": [
        {
            "inputs": [
                {
                    "internalType": "string",
                    "name": "_tld",
                    "type": "string"
                }
            ],
            "stateMutability": "payable",
            "type": "constructor"
        },
        {
            "anonymous": false,
            "inputs": [
                {
                    "indexed": true,
                    "internalType": "address",
                    "name": "owner",
                    "type": "address"
                },
                {
                    "indexed": true,
                    "internalType": "address",
                    "name": "approved",
                    "type": "address"
                },
                {
                    "indexed": true,
                    "internalType": "uint256",
                    "name": "tokenId",
                    "type": "uint256"
                }
            ],
            "name": "Approval",
            "type": "event"
        },
        {
            "anonymous": false,
            "inputs": [
                {
                    "indexed": true,
                    "internalType": "address",
                    "name": "owner",
                    "type": "address"
                },
                {
                    "indexed": true,
                    "internalType": "address",
                    "name": "operator",
                    "type": "address"
                },
                {
                    "indexed": false,
                    "internalType": "bool",
                    "name": "approved",
                    "type": "bool"
                }
            ],
            "name": "ApprovalForAll",
            "type": "event"
        },
        {
            "anonymous": false,
            "inputs": [
                {
                    "indexed": true,
                    "internalType": "address",
                    "name": "from",
                    "type": "address"
                },
                {
                    "indexed": true,
                    "internalType": "address",
                    "name": "to",
                    "type": "address"
                },
                {
                    "indexed": true,
                    "internalType": "uint256",
                    "name": "tokenId",
                    "type": "uint256"
                }
            ],
            "name": "Transfer",
            "type": "event"
        },
        {
            "inputs": [
                {
                    "internalType": "address",
                    "name": "to",
                    "type": "address"
                },
                {
                    "internalType": "uint256",
                    "name": "tokenId",
                    "type": "uint256"
                }
            ],
            "name": "approve",
            "outputs": [],
            "stateMutability": "nonpayable",
            "type": "function"
        },
        {
            "inputs": [
                {
                    "internalType": "address",
                    "name": "owner",
                    "type": "address"
                }
            ],
            "name": "balanceOf",
            "outputs": [
                {
                    "internalType": "uint256",
                    "name": "",
                    "type": "uint256"
                }
            ],
            "stateMutability": "view",
            "type": "function"
        },
        {
            "inputs": [
                {
                    "internalType": "string",
                    "name": "",
                    "type": "string"
                }
            ],
            "name": "domains",
            "outputs": [
                {
                    "internalType": "address",
                    "name": "",
                    "type": "address"
                }
            ],
            "stateMutability": "view",
            "type": "function"
        },
        {
            "inputs": [
                {
                    "internalType": "string",
                    "name": "name",
                    "type": "string"
                }
            ],
            "name": "getAddress",
            "outputs": [
                {
                    "internalType": "address",
                    "name": "",
                    "type": "address"
                }
            ],
            "stateMutability": "view",
            "type": "function"
        },
        {
            "inputs": [
                {
                    "internalType": "uint256",
                    "name": "tokenId",
                    "type": "uint256"
                }
            ],
            "name": "getApproved",
            "outputs": [
                {
                    "internalType": "address",
                    "name": "",
                    "type": "address"
                }
            ],
            "stateMutability": "view",
            "type": "function"
        },
        {
            "inputs": [
                {
                    "internalType": "address",
                    "name": "owner",
                    "type": "address"
                },
                {
                    "internalType": "address",
                    "name": "operator",
                    "type": "address"
                }
            ],
            "name": "isApprovedForAll",
            "outputs": [
                {
                    "internalType": "bool",
                    "name": "",
                    "type": "bool"
                }
            ],
            "stateMutability": "view",
            "type": "function"
        },
        {
            "inputs": [],
            "name": "name",
            "outputs": [
                {
                    "internalType": "string",
                    "name": "",
                    "type": "string"
                }
            ],
            "stateMutability": "view",
            "type": "function"
        },
        {
            "inputs": [
                {
                    "internalType": "uint256",
                    "name": "tokenId",
                    "type": "uint256"
                }
            ],
            "name": "ownerOf",
            "outputs": [
                {
                    "internalType": "address",
                    "name": "",
                    "type": "address"
                }
            ],
            "stateMutability": "view",
            "type": "function"
        },
        {
            "inputs": [
                {
                    "internalType": "string",
                    "name": "name",
                    "type": "string"
                }
            ],
            "name": "price",
            "outputs": [
                {
                    "internalType": "uint256",
                    "name": "",
                    "type": "uint256"
                }
            ],
            "stateMutability": "pure",
            "type": "function"
        },
        {
            "inputs": [
                {
                    "internalType": "string",
                    "name": "",
                    "type": "string"
                }
            ],
            "name": "records",
            "outputs": [
                {
                    "internalType": "string",
                    "name": "",
                    "type": "string"
                }
            ],
            "stateMutability": "view",
            "type": "function"
        },
        {
            "inputs": [
                {
                    "internalType": "string",
                    "name": "name",
                    "type": "string"
                }
            ],
            "name": "register",
            "outputs": [],
            "stateMutability": "payable",
            "type": "function"
        },
        {
            "inputs": [
                {
                    "internalType": "address",
                    "name": "from",
                    "type": "address"
                },
                {
                    "internalType": "address",
                    "name": "to",
                    "type": "address"
                },
                {
                    "internalType": "uint256",
                    "name": "tokenId",
                    "type": "uint256"
                }
            ],
            "name": "safeTransferFrom",
            "outputs": [],
            "stateMutability": "nonpayable",
            "type": "function"
        },
        {
            "inputs": [
                {
                    "internalType": "address",
                    "name": "from",
                    "type": "address"
                },
                {
                    "internalType": "address",
                    "name": "to",
                    "type": "address"
                },
                {
                    "internalType": "uint256",
                    "name": "tokenId",
                    "type": "uint256"
                },
                {
                    "internalType": "bytes",
                    "name": "data",
                    "type": "bytes"
                }
            ],
            "name": "safeTransferFrom",
            "outputs": [],
            "stateMutability": "nonpayable",
            "type": "function"
        },
        {
            "inputs": [
                {
                    "internalType": "address",
                    "name": "operator",
                    "type": "address"
                },
                {
                    "internalType": "bool",
                    "name": "approved",
                    "type": "bool"
                }
            ],
            "name": "setApprovalForAll",
            "outputs": [],
            "stateMutability": "nonpayable",
            "type": "function"
        },
        {
            "inputs": [
                {
                    "internalType": "string",
                    "name": "name",
                    "type": "string"
                },
                {
                    "internalType": "string",
                    "name": "record",
                    "type": "string"
                }
            ],
            "name": "setRecord",
            "outputs": [],
            "stateMutability": "nonpayable",
            "type": "function"
        },
        {
            "inputs": [
                {
                    "internalType": "bytes4",
                    "name": "interfaceId",
                    "type": "bytes4"
                }
            ],
            "name": "supportsInterface",
            "outputs": [
                {
                    "internalType": "bool",
                    "name": "",
                    "type": "bool"
                }
            ],
            "stateMutability": "view",
            "type": "function"
        },
        {
            "inputs": [],
            "name": "symbol",
            "outputs": [
                {
                    "internalType": "string",
                    "name": "",
                    "type": "string"
                }
            ],
            "stateMutability": "view",
            "type": "function"
        },
        {
            "inputs": [],
            "name": "tld",
            "outputs": [
                {
                    "internalType": "string",
                    "name": "",
                    "type": "string"
                }
            ],
            "stateMutability": "view",
            "type": "function"
        },
        {
            "inputs": [
                {
                    "internalType": "uint256",
                    "name": "tokenId",
                    "type": "uint256"
                }
            ],
            "name": "tokenURI",
            "outputs": [
                {
                    "internalType": "string",
                    "name": "",
                    "type": "string"
                }
            ],
            "stateMutability": "view",
            "type": "function"
        },
        {
            "inputs": [
                {
                    "internalType": "address",
                    "name": "from",
                    "type": "address"
                },
                {
                    "internalType": "address",
                    "name": "to",
                    "type": "address"
                },
                {
                    "internalType": "uint256",
                    "name": "tokenId",
                    "type": "uint256"
                }
            ],
            "name": "transferFrom",
            "outputs": [],
            "stateMutability": "nonpayable",
            "type": "function"
        }
    ],
    "bytecode": "0x6080604052604051806108a0016040528061086b81526020016200476961086b9139600990805190602001906200003892919062000287565b506040518060400160405280600d81526020017f3c2f746578743e3c2f7376673e00000000000000000000000000000000000000815250600a90805190602001906200008692919062000287565b5060405162004fd438038062004fd48339818101604052810190620000ac9190620004d4565b6040518060400160405280600a81526020017f62616e616e6120646e73000000000000000000000000000000000000000000008152506040518060400160405280600381526020017f626e73000000000000000000000000000000000000000000000000000000000081525081600090805190602001906200013092919062000287565b5080600190805190602001906200014992919062000287565b50505080600890805190602001906200016492919062000287565b50620001b16040518060400160405280601881526020017f2573206e616d652073657276696365206465706c6f796564000000000000000081525082620001b860201b620013601760201c565b5062000622565b6200025a8282604051602401620001d192919062000582565b6040516020818303038152906040527f4b5c4277000000000000000000000000000000000000000000000000000000007bffffffffffffffffffffffffffffffffffffffffffffffffffffffff19166020820180517bffffffffffffffffffffffffffffffffffffffffffffffffffffffff83818316178352505050506200025e60201b60201c565b5050565b60008151905060006a636f6e736f6c652e6c6f679050602083016000808483855afa5050505050565b8280546200029590620005ec565b90600052602060002090601f016020900481019282620002b9576000855562000305565b82601f10620002d457805160ff191683800117855562000305565b8280016001018555821562000305579182015b8281111562000304578251825591602001919060010190620002e7565b5b50905062000314919062000318565b5090565b5b808211156200033357600081600090555060010162000319565b5090565b6000604051905090565b600080fd5b600080fd5b600080fd5b600080fd5b6000601f19601f8301169050919050565b7f4e487b7100000000000000000000000000000000000000000000000000000000600052604160045260246000fd5b620003a08262000355565b810181811067ffffffffffffffff82111715620003c257620003c162000366565b5b80604052505050565b6000620003d762000337565b9050620003e5828262000395565b919050565b600067ffffffffffffffff82111562000408576200040762000366565b5b620004138262000355565b9050602081019050919050565b60005b838110156200044057808201518184015260208101905062000423565b8381111562000450576000848401525b50505050565b60006200046d6200046784620003ea565b620003cb565b9050828152602081018484840111156200048c576200048b62000350565b5b6200049984828562000420565b509392505050565b600082601f830112620004b957620004b86200034b565b5b8151620004cb84826020860162000456565b91505092915050565b600060208284031215620004ed57620004ec62000341565b5b600082015167ffffffffffffffff8111156200050e576200050d62000346565b5b6200051c84828501620004a1565b91505092915050565b600081519050919050565b600082825260208201905092915050565b60006200054e8262000525565b6200055a818562000530565b93506200056c81856020860162000420565b620005778162000355565b840191505092915050565b600060408201905081810360008301526200059e818562000541565b90508181036020830152620005b4818462000541565b90509392505050565b7f4e487b7100000000000000000000000000000000000000000000000000000000600052602260045260246000fd5b600060028204905060018216806200060557607f821691505b602082108114156200061c576200061b620005bd565b5b50919050565b61413780620006326000396000f3fe60806040526004361061011f5760003560e01c806370a08231116100a0578063c1880a9811610064578063c1880a981461041d578063c87b56dd14610446578063e985e9c514610483578063f2c298be146104c0578063fe2c6198146104dc5761011f565b806370a082311461032657806395d89b4114610363578063a22cb4651461038e578063b88d4fde146103b7578063bf40fac1146103e05761011f565b806326449235116100e7578063264492351461021b5780632d5514321461025857806342842e0e14610283578063541e771d146102ac5780636352211e146102e95761011f565b806301ffc9a71461012457806306fdde0314610161578063081812fc1461018c578063095ea7b3146101c957806323b872dd146101f2575b600080fd5b34801561013057600080fd5b5061014b60048036038101906101469190612a0a565b610519565b6040516101589190612a52565b60405180910390f35b34801561016d57600080fd5b506101766105fb565b6040516101839190612b06565b60405180910390f35b34801561019857600080fd5b506101b360048036038101906101ae9190612b5e565b61068d565b6040516101c09190612bcc565b60405180910390f35b3480156101d557600080fd5b506101f060048036038101906101eb9190612c13565b6106d3565b005b3480156101fe57600080fd5b5061021960048036038101906102149190612c53565b6107eb565b005b34801561022757600080fd5b50610242600480360381019061023d9190612ddb565b61084b565b60405161024f9190612bcc565b60405180910390f35b34801561026457600080fd5b5061026d610894565b60405161027a9190612b06565b60405180910390f35b34801561028f57600080fd5b506102aa60048036038101906102a59190612c53565b610922565b005b3480156102b857600080fd5b506102d360048036038101906102ce9190612ddb565b610942565b6040516102e09190612b06565b60405180910390f35b3480156102f557600080fd5b50610310600480360381019061030b9190612b5e565b6109f8565b60405161031d9190612bcc565b60405180910390f35b34801561033257600080fd5b5061034d60048036038101906103489190612e24565b610a7f565b60405161035a9190612e60565b60405180910390f35b34801561036f57600080fd5b50610378610b37565b6040516103859190612b06565b60405180910390f35b34801561039a57600080fd5b506103b560048036038101906103b09190612ea7565b610bc9565b005b3480156103c357600080fd5b506103de60048036038101906103d99190612f88565b610bdf565b005b3480156103ec57600080fd5b5061040760048036038101906104029190612ddb565b610c41565b6040516104149190612bcc565b60405180910390f35b34801561042957600080fd5b50610444600480360381019061043f919061306b565b610c89565b005b34801561045257600080fd5b5061046d60048036038101906104689190612b5e565b610d32565b60405161047a9190612b06565b60405180910390f35b34801561048f57600080fd5b506104aa60048036038101906104a591906130e7565b610e45565b6040516104b79190612a52565b60405180910390f35b6104da60048036038101906104d59190613127565b610ed9565b005b3480156104e857600080fd5b5061050360048036038101906104fe9190613127565b6112ba565b6040516105109190612e60565b60405180910390f35b60007f80ac58cd000000000000000000000000000000000000000000000000000000007bffffffffffffffffffffffffffffffffffffffffffffffffffffffff1916827bffffffffffffffffffffffffffffffffffffffffffffffffffffffff191614806105e457507f5b5e139f000000000000000000000000000000000000000000000000000000007bffffffffffffffffffffffffffffffffffffffffffffffffffffffff1916827bffffffffffffffffffffffffffffffffffffffffffffffffffffffff1916145b806105f457506105f3826113fc565b5b9050919050565b60606000805461060a906131a3565b80601f0160208091040260200160405190810160405280929190818152602001828054610636906131a3565b80156106835780601f1061065857610100808354040283529160200191610683565b820191906000526020600020905b81548152906001019060200180831161066657829003601f168201915b5050505050905090565b600061069882611466565b6004600083815260200190815260200160002060009054906101000a900473ffffffffffffffffffffffffffffffffffffffff169050919050565b60006106de826109f8565b90508073ffffffffffffffffffffffffffffffffffffffff168373ffffffffffffffffffffffffffffffffffffffff16141561074f576040517f08c379a000000000000000000000000000000000000000000000000000000000815260040161074690613247565b60405180910390fd5b8073ffffffffffffffffffffffffffffffffffffffff1661076e6114b1565b73ffffffffffffffffffffffffffffffffffffffff16148061079d575061079c816107976114b1565b610e45565b5b6107dc576040517f08c379a00000000000000000000000000000000000000000000000000000000081526004016107d3906132d9565b60405180910390fd5b6107e683836114b9565b505050565b6107fc6107f66114b1565b82611572565b61083b576040517f08c379a00000000000000000000000000000000000000000000000000000000081526004016108329061336b565b60405180910390fd5b610846838383611607565b505050565b600b818051602081018201805184825260208301602085012081835280955050505050506000915054906101000a900473ffffffffffffffffffffffffffffffffffffffff1681565b600880546108a1906131a3565b80601f01602080910402602001604051908101604052809291908181526020018280546108cd906131a3565b801561091a5780601f106108ef5761010080835404028352916020019161091a565b820191906000526020600020905b8154815290600101906020018083116108fd57829003601f168201915b505050505081565b61093d83838360405180602001604052806000815250610bdf565b505050565b600c818051602081018201805184825260208301602085012081835280955050505050506000915090508054610977906131a3565b80601f01602080910402602001604051908101604052809291908181526020018280546109a3906131a3565b80156109f05780601f106109c5576101008083540402835291602001916109f0565b820191906000526020600020905b8154815290600101906020018083116109d357829003601f168201915b505050505081565b600080610a0483611901565b9050600073ffffffffffffffffffffffffffffffffffffffff168173ffffffffffffffffffffffffffffffffffffffff161415610a76576040517f08c379a0000000000000000000000000000000000000000000000000000000008152600401610a6d906133d7565b60405180910390fd5b80915050919050565b60008073ffffffffffffffffffffffffffffffffffffffff168273ffffffffffffffffffffffffffffffffffffffff161415610af0576040517f08c379a0000000000000000000000000000000000000000000000000000000008152600401610ae790613469565b60405180910390fd5b600360008373ffffffffffffffffffffffffffffffffffffffff1673ffffffffffffffffffffffffffffffffffffffff168152602001908152602001600020549050919050565b606060018054610b46906131a3565b80601f0160208091040260200160405190810160405280929190818152602001828054610b72906131a3565b8015610bbf5780601f10610b9457610100808354040283529160200191610bbf565b820191906000526020600020905b815481529060010190602001808311610ba257829003601f168201915b5050505050905090565b610bdb610bd46114b1565b838361193e565b5050565b610bf0610bea6114b1565b83611572565b610c2f576040517f08c379a0000000000000000000000000000000000000000000000000000000008152600401610c269061336b565b60405180910390fd5b610c3b84848484611aab565b50505050565b6000600b82604051610c5391906134c5565b908152602001604051809103902060009054906101000a900473ffffffffffffffffffffffffffffffffffffffff169050919050565b3373ffffffffffffffffffffffffffffffffffffffff16600b84604051610cb091906134c5565b908152602001604051809103902060009054906101000a900473ffffffffffffffffffffffffffffffffffffffff1673ffffffffffffffffffffffffffffffffffffffff1614610cff57600080fd5b8181600c85604051610d1191906134c5565b90815260200160405180910390209190610d2c929190612875565b50505050565b6060610d3d82611466565b6000600660008481526020019081526020016000208054610d5d906131a3565b80601f0160208091040260200160405190810160405280929190818152602001828054610d89906131a3565b8015610dd65780601f10610dab57610100808354040283529160200191610dd6565b820191906000526020600020905b815481529060010190602001808311610db957829003601f168201915b505050505090506000610de7611b07565b9050600081511415610dfd578192505050610e40565b600082511115610e32578082604051602001610e1a9291906134dc565b60405160208183030381529060405292505050610e40565b610e3b84611b1e565b925050505b919050565b6000600560008473ffffffffffffffffffffffffffffffffffffffff1673ffffffffffffffffffffffffffffffffffffffff16815260200190815260200160002060008373ffffffffffffffffffffffffffffffffffffffff1673ffffffffffffffffffffffffffffffffffffffff16815260200190815260200160002060009054906101000a900460ff16905092915050565b600073ffffffffffffffffffffffffffffffffffffffff16600b8383604051610f03929190613525565b908152602001604051809103902060009054906101000a900473ffffffffffffffffffffffffffffffffffffffff1673ffffffffffffffffffffffffffffffffffffffff1614610f5257600080fd5b6000610f5e83836112ba565b905080341015610fa3576040517f08c379a0000000000000000000000000000000000000000000000000000000008152600401610f9a9061358a565b60405180910390fd5b600083836008604051602001610fbb9392919061368a565b60405160208183030381529060405290506000600982600a604051602001610fe5939291906136bb565b604051602081830303815290604052905060006110026007611b86565b9050600061105387878080601f016020809104026020016040519081016040528093929190818152602001838380828437600081840152601f19601f82011690508083019250505050505050611b94565b9050600061106082611d49565b90506111546040518060600160405280603181526020016140916031913989898080601f016020809104026020016040519081016040528093929190818152602001838380828437600081840152601f19601f82011690508083019250505050505050600880546110d0906131a3565b80601f01602080910402602001604051908101604052809291908181526020018280546110fc906131a3565b80156111495780601f1061111e57610100808354040283529160200191611149565b820191906000526020600020905b81548152906001019060200180831161112c57829003601f168201915b505050505086611e21565b600061118a8661116387611ec3565b8460405160200161117693929190613868565b604051602081830303815290604052611ec3565b905060008160405160200161119f9190613911565b60405160208183030381529060405290506111d160405180606001604052806039815260200161401f60399139612027565b6112106040518060400160405280600e81526020017f46696e616c20746f6b656e55524900000000000000000000000000000000000081525082611360565b61123160405180606001604052806039815260200161405860399139612027565b61123b33866120c0565b61124585826120de565b33600b8b8b604051611258929190613525565b908152602001604051809103902060006101000a81548173ffffffffffffffffffffffffffffffffffffffff021916908373ffffffffffffffffffffffffffffffffffffffff1602179055506112ae6007612152565b50505050505050505050565b60008061130a84848080601f016020809104026020016040519081016040528093929190818152602001838380828437600081840152601f19601f82011690508083019250505050505050611b94565b90506000811161131957600080fd5b6003811415611333576706f05b59d3b2000091505061135a565b600481141561134d57670429d069189e000091505061135a565b67016345785d8a00009150505b92915050565b6113f88282604051602401611376929190613933565b6040516020818303038152906040527f4b5c4277000000000000000000000000000000000000000000000000000000007bffffffffffffffffffffffffffffffffffffffffffffffffffffffff19166020820180517bffffffffffffffffffffffffffffffffffffffffffffffffffffffff8381831617835250505050612168565b5050565b60007f01ffc9a7000000000000000000000000000000000000000000000000000000007bffffffffffffffffffffffffffffffffffffffffffffffffffffffff1916827bffffffffffffffffffffffffffffffffffffffffffffffffffffffff1916149050919050565b61146f81612191565b6114ae576040517f08c379a00000000000000000000000000000000000000000000000000000000081526004016114a5906133d7565b60405180910390fd5b50565b600033905090565b816004600083815260200190815260200160002060006101000a81548173ffffffffffffffffffffffffffffffffffffffff021916908373ffffffffffffffffffffffffffffffffffffffff160217905550808273ffffffffffffffffffffffffffffffffffffffff1661152c836109f8565b73ffffffffffffffffffffffffffffffffffffffff167f8c5be1e5ebec7d5bd14f71427d1e84f3dd0314c0f7b2291e5b200ac8c7c3b92560405160405180910390a45050565b60008061157e836109f8565b90508073ffffffffffffffffffffffffffffffffffffffff168473ffffffffffffffffffffffffffffffffffffffff1614806115c057506115bf8185610e45565b5b806115fe57508373ffffffffffffffffffffffffffffffffffffffff166115e68461068d565b73ffffffffffffffffffffffffffffffffffffffff16145b91505092915050565b8273ffffffffffffffffffffffffffffffffffffffff16611627826109f8565b73ffffffffffffffffffffffffffffffffffffffff161461167d576040517f08c379a0000000000000000000000000000000000000000000000000000000008152600401611674906139dc565b60405180910390fd5b600073ffffffffffffffffffffffffffffffffffffffff168273ffffffffffffffffffffffffffffffffffffffff1614156116ed576040517f08c379a00000000000000000000000000000000000000000000000000000000081526004016116e490613a6e565b60405180910390fd5b6116fa83838360016121d2565b8273ffffffffffffffffffffffffffffffffffffffff1661171a826109f8565b73ffffffffffffffffffffffffffffffffffffffff1614611770576040517f08c379a0000000000000000000000000000000000000000000000000000000008152600401611767906139dc565b60405180910390fd5b6004600082815260200190815260200160002060006101000a81549073ffffffffffffffffffffffffffffffffffffffff02191690556001600360008573ffffffffffffffffffffffffffffffffffffffff1673ffffffffffffffffffffffffffffffffffffffff168152602001908152602001600020600082825403925050819055506001600360008473ffffffffffffffffffffffffffffffffffffffff1673ffffffffffffffffffffffffffffffffffffffff16815260200190815260200160002060008282540192505081905550816002600083815260200190815260200160002060006101000a81548173ffffffffffffffffffffffffffffffffffffffff021916908373ffffffffffffffffffffffffffffffffffffffff160217905550808273ffffffffffffffffffffffffffffffffffffffff168473ffffffffffffffffffffffffffffffffffffffff167fddf252ad1be2c89b69c2b068fc378daa952ba7f163c4a11628f55a4df523b3ef60405160405180910390a46118fc83838360016122f8565b505050565b60006002600083815260200190815260200160002060009054906101000a900473ffffffffffffffffffffffffffffffffffffffff169050919050565b8173ffffffffffffffffffffffffffffffffffffffff168373ffffffffffffffffffffffffffffffffffffffff1614156119ad576040517f08c379a00000000000000000000000000000000000000000000000000000000081526004016119a490613ada565b60405180910390fd5b80600560008573ffffffffffffffffffffffffffffffffffffffff1673ffffffffffffffffffffffffffffffffffffffff16815260200190815260200160002060008473ffffffffffffffffffffffffffffffffffffffff1673ffffffffffffffffffffffffffffffffffffffff16815260200190815260200160002060006101000a81548160ff0219169083151502179055508173ffffffffffffffffffffffffffffffffffffffff168373ffffffffffffffffffffffffffffffffffffffff167f17307eab39ab6107e8899845ad3d59bd9653f200f220920489ca2b5937696c3183604051611a9e9190612a52565b60405180910390a3505050565b611ab6848484611607565b611ac2848484846122fe565b611b01576040517f08c379a0000000000000000000000000000000000000000000000000000000008152600401611af890613b6c565b60405180910390fd5b50505050565b606060405180602001604052806000815250905090565b6060611b2982611466565b6000611b33611b07565b90506000815111611b535760405180602001604052806000815250611b7e565b80611b5d84611d49565b604051602001611b6e9291906134dc565b6040516020818303038152906040525b915050919050565b600081600001549050919050565b60008060008084519050600092505b80821015611d3e576000858381518110611bc057611bbf613b8c565b5b602001015160f81c60f81b9050608060f81b817effffffffffffffffffffffffffffffffffffffffffffffffffffffffffffff19161015611c0f57600183611c089190613bea565b9250611d2a565b60e060f81b817effffffffffffffffffffffffffffffffffffffffffffffffffffffffffffff19161015611c5157600283611c4a9190613bea565b9250611d29565b60f060f81b817effffffffffffffffffffffffffffffffffffffffffffffffffffffffffffff19161015611c9357600383611c8c9190613bea565b9250611d28565b60f8801b817effffffffffffffffffffffffffffffffffffffffffffffffffffffffffffff19161015611cd457600483611ccd9190613bea565b9250611d27565b60fc60f81b817effffffffffffffffffffffffffffffffffffffffffffffffffffffffffffff19161015611d1657600583611d0f9190613bea565b9250611d26565b600683611d239190613bea565b92505b5b5b5b5b508280611d3690613c40565b935050611ba3565b829350505050919050565b606060006001611d5884612486565b01905060008167ffffffffffffffff811115611d7757611d76612cb0565b5b6040519080825280601f01601f191660200182016040528015611da95781602001600182028036833780820191505090505b509050600082602001820190505b600115611e16578080600190039150507f3031323334353637383961626364656600000000000000000000000000000000600a86061a8153600a8581611e0057611dff613c89565b5b0494506000851415611e1157611e16565b611db7565b819350505050919050565b611ebd84848484604051602401611e3b9493929190613cb8565b6040516020818303038152906040527f8eafb02b000000000000000000000000000000000000000000000000000000007bffffffffffffffffffffffffffffffffffffffffffffffffffffffff19166020820180517bffffffffffffffffffffffffffffffffffffffffffffffffffffffff8381831617835250505050612168565b50505050565b6060600082511415611ee657604051806020016040528060008152509050612022565b60006040518060600160405280604081526020016140c26040913990506000600360028551611f159190613bea565b611f1f9190613d12565b6004611f2b9190613d43565b67ffffffffffffffff811115611f4457611f43612cb0565b5b6040519080825280601f01601f191660200182016040528015611f765781602001600182028036833780820191505090505b509050600182016020820185865187015b80821015611fe2576003820191508151603f8160121c168501518453600184019350603f81600c1c168501518453600184019350603f8160061c168501518453600184019350603f8116850151845360018401935050611f87565b5050600386510660018114611ffe576002811461201157612019565b603d6001830353603d6002830353612019565b603d60018303535b50505080925050505b919050565b6120bd8160405160240161203b9190612b06565b6040516020818303038152906040527f41304fac000000000000000000000000000000000000000000000000000000007bffffffffffffffffffffffffffffffffffffffffffffffffffffffff19166020820180517bffffffffffffffffffffffffffffffffffffffffffffffffffffffff8381831617835250505050612168565b50565b6120da8282604051806020016040528060008152506125d9565b5050565b6120e782612191565b612126576040517f08c379a000000000000000000000000000000000000000000000000000000000815260040161211d90613e0f565b60405180910390fd5b8060066000848152602001908152602001600020908051906020019061214d9291906128fb565b505050565b6001816000016000828254019250508190555050565b60008151905060006a636f6e736f6c652e6c6f679050602083016000808483855afa5050505050565b60008073ffffffffffffffffffffffffffffffffffffffff166121b383611901565b73ffffffffffffffffffffffffffffffffffffffff1614159050919050565b60018111156122f257600073ffffffffffffffffffffffffffffffffffffffff168473ffffffffffffffffffffffffffffffffffffffff16146122665780600360008673ffffffffffffffffffffffffffffffffffffffff1673ffffffffffffffffffffffffffffffffffffffff168152602001908152602001600020600082825461225e9190613e2f565b925050819055505b600073ffffffffffffffffffffffffffffffffffffffff168373ffffffffffffffffffffffffffffffffffffffff16146122f15780600360008573ffffffffffffffffffffffffffffffffffffffff1673ffffffffffffffffffffffffffffffffffffffff16815260200190815260200160002060008282546122e99190613bea565b925050819055505b5b50505050565b50505050565b600061231f8473ffffffffffffffffffffffffffffffffffffffff16612634565b15612479578373ffffffffffffffffffffffffffffffffffffffff1663150b7a026123486114b1565b8786866040518563ffffffff1660e01b815260040161236a9493929190613eb8565b6020604051808303816000875af19250505080156123a657506040513d601f19601f820116820180604052508101906123a39190613f19565b60015b612429573d80600081146123d6576040519150601f19603f3d011682016040523d82523d6000602084013e6123db565b606091505b50600081511415612421576040517f08c379a000000000000000000000000000000000000000000000000000000000815260040161241890613b6c565b60405180910390fd5b805181602001fd5b63150b7a0260e01b7bffffffffffffffffffffffffffffffffffffffffffffffffffffffff1916817bffffffffffffffffffffffffffffffffffffffffffffffffffffffff19161491505061247e565b600190505b949350505050565b600080600090507a184f03e93ff9f4daa797ed6e38ed64bf6a1f01000000000000000083106124e4577a184f03e93ff9f4daa797ed6e38ed64bf6a1f01000000000000000083816124da576124d9613c89565b5b0492506040810190505b6d04ee2d6d415b85acef81000000008310612521576d04ee2d6d415b85acef8100000000838161251757612516613c89565b5b0492506020810190505b662386f26fc10000831061255057662386f26fc10000838161254657612545613c89565b5b0492506010810190505b6305f5e1008310612579576305f5e100838161256f5761256e613c89565b5b0492506008810190505b612710831061259e57612710838161259457612593613c89565b5b0492506004810190505b606483106125c157606483816125b7576125b6613c89565b5b0492506002810190505b600a83106125d0576001810190505b80915050919050565b6125e38383612657565b6125f060008484846122fe565b61262f576040517f08c379a000000000000000000000000000000000000000000000000000000000815260040161262690613b6c565b60405180910390fd5b505050565b6000808273ffffffffffffffffffffffffffffffffffffffff163b119050919050565b600073ffffffffffffffffffffffffffffffffffffffff168273ffffffffffffffffffffffffffffffffffffffff1614156126c7576040517f08c379a00000000000000000000000000000000000000000000000000000000081526004016126be90613f92565b60405180910390fd5b6126d081612191565b15612710576040517f08c379a000000000000000000000000000000000000000000000000000000000815260040161270790613ffe565b60405180910390fd5b61271e6000838360016121d2565b61272781612191565b15612767576040517f08c379a000000000000000000000000000000000000000000000000000000000815260040161275e90613ffe565b60405180910390fd5b6001600360008473ffffffffffffffffffffffffffffffffffffffff1673ffffffffffffffffffffffffffffffffffffffff16815260200190815260200160002060008282540192505081905550816002600083815260200190815260200160002060006101000a81548173ffffffffffffffffffffffffffffffffffffffff021916908373ffffffffffffffffffffffffffffffffffffffff160217905550808273ffffffffffffffffffffffffffffffffffffffff16600073ffffffffffffffffffffffffffffffffffffffff167fddf252ad1be2c89b69c2b068fc378daa952ba7f163c4a11628f55a4df523b3ef60405160405180910390a46128716000838360016122f8565b5050565b828054612881906131a3565b90600052602060002090601f0160209004810192826128a357600085556128ea565b82601f106128bc57803560ff19168380011785556128ea565b828001600101855582156128ea579182015b828111156128e95782358255916020019190600101906128ce565b5b5090506128f79190612981565b5090565b828054612907906131a3565b90600052602060002090601f0160209004810192826129295760008555612970565b82601f1061294257805160ff1916838001178555612970565b82800160010185558215612970579182015b8281111561296f578251825591602001919060010190612954565b5b50905061297d9190612981565b5090565b5b8082111561299a576000816000905550600101612982565b5090565b6000604051905090565b600080fd5b600080fd5b60007fffffffff0000000000000000000000000000000000000000000000000000000082169050919050565b6129e7816129b2565b81146129f257600080fd5b50565b600081359050612a04816129de565b92915050565b600060208284031215612a2057612a1f6129a8565b5b6000612a2e848285016129f5565b91505092915050565b60008115159050919050565b612a4c81612a37565b82525050565b6000602082019050612a676000830184612a43565b92915050565b600081519050919050565b600082825260208201905092915050565b60005b83811015612aa7578082015181840152602081019050612a8c565b83811115612ab6576000848401525b50505050565b6000601f19601f8301169050919050565b6000612ad882612a6d565b612ae28185612a78565b9350612af2818560208601612a89565b612afb81612abc565b840191505092915050565b60006020820190508181036000830152612b208184612acd565b905092915050565b6000819050919050565b612b3b81612b28565b8114612b4657600080fd5b50565b600081359050612b5881612b32565b92915050565b600060208284031215612b7457612b736129a8565b5b6000612b8284828501612b49565b91505092915050565b600073ffffffffffffffffffffffffffffffffffffffff82169050919050565b6000612bb682612b8b565b9050919050565b612bc681612bab565b82525050565b6000602082019050612be16000830184612bbd565b92915050565b612bf081612bab565b8114612bfb57600080fd5b50565b600081359050612c0d81612be7565b92915050565b60008060408385031215612c2a57612c296129a8565b5b6000612c3885828601612bfe565b9250506020612c4985828601612b49565b9150509250929050565b600080600060608486031215612c6c57612c6b6129a8565b5b6000612c7a86828701612bfe565b9350506020612c8b86828701612bfe565b9250506040612c9c86828701612b49565b9150509250925092565b600080fd5b600080fd5b7f4e487b7100000000000000000000000000000000000000000000000000000000600052604160045260246000fd5b612ce882612abc565b810181811067ffffffffffffffff82111715612d0757612d06612cb0565b5b80604052505050565b6000612d1a61299e565b9050612d268282612cdf565b919050565b600067ffffffffffffffff821115612d4657612d45612cb0565b5b612d4f82612abc565b9050602081019050919050565b82818337600083830152505050565b6000612d7e612d7984612d2b565b612d10565b905082815260208101848484011115612d9a57612d99612cab565b5b612da5848285612d5c565b509392505050565b600082601f830112612dc257612dc1612ca6565b5b8135612dd2848260208601612d6b565b91505092915050565b600060208284031215612df157612df06129a8565b5b600082013567ffffffffffffffff811115612e0f57612e0e6129ad565b5b612e1b84828501612dad565b91505092915050565b600060208284031215612e3a57612e396129a8565b5b6000612e4884828501612bfe565b91505092915050565b612e5a81612b28565b82525050565b6000602082019050612e756000830184612e51565b92915050565b612e8481612a37565b8114612e8f57600080fd5b50565b600081359050612ea181612e7b565b92915050565b60008060408385031215612ebe57612ebd6129a8565b5b6000612ecc85828601612bfe565b9250506020612edd85828601612e92565b9150509250929050565b600067ffffffffffffffff821115612f0257612f01612cb0565b5b612f0b82612abc565b9050602081019050919050565b6000612f2b612f2684612ee7565b612d10565b905082815260208101848484011115612f4757612f46612cab565b5b612f52848285612d5c565b509392505050565b600082601f830112612f6f57612f6e612ca6565b5b8135612f7f848260208601612f18565b91505092915050565b60008060008060808587031215612fa257612fa16129a8565b5b6000612fb087828801612bfe565b9450506020612fc187828801612bfe565b9350506040612fd287828801612b49565b925050606085013567ffffffffffffffff811115612ff357612ff26129ad565b5b612fff87828801612f5a565b91505092959194509250565b600080fd5b600080fd5b60008083601f84011261302b5761302a612ca6565b5b8235905067ffffffffffffffff8111156130485761304761300b565b5b60208301915083600182028301111561306457613063613010565b5b9250929050565b600080600060408486031215613084576130836129a8565b5b600084013567ffffffffffffffff8111156130a2576130a16129ad565b5b6130ae86828701612dad565b935050602084013567ffffffffffffffff8111156130cf576130ce6129ad565b5b6130db86828701613015565b92509250509250925092565b600080604083850312156130fe576130fd6129a8565b5b600061310c85828601612bfe565b925050602061311d85828601612bfe565b9150509250929050565b6000806020838503121561313e5761313d6129a8565b5b600083013567ffffffffffffffff81111561315c5761315b6129ad565b5b61316885828601613015565b92509250509250929050565b7f4e487b7100000000000000000000000000000000000000000000000000000000600052602260045260246000fd5b600060028204905060018216806131bb57607f821691505b602082108114156131cf576131ce613174565b5b50919050565b7f4552433732313a20617070726f76616c20746f2063757272656e74206f776e6560008201527f7200000000000000000000000000000000000000000000000000000000000000602082015250565b6000613231602183612a78565b915061323c826131d5565b604082019050919050565b6000602082019050818103600083015261326081613224565b9050919050565b7f4552433732313a20617070726f76652063616c6c6572206973206e6f7420746f60008201527f6b656e206f776e6572206f7220617070726f76656420666f7220616c6c000000602082015250565b60006132c3603d83612a78565b91506132ce82613267565b604082019050919050565b600060208201905081810360008301526132f2816132b6565b9050919050565b7f4552433732313a2063616c6c6572206973206e6f7420746f6b656e206f776e6560008201527f72206f7220617070726f76656400000000000000000000000000000000000000602082015250565b6000613355602d83612a78565b9150613360826132f9565b604082019050919050565b6000602082019050818103600083015261338481613348565b9050919050565b7f4552433732313a20696e76616c696420746f6b656e2049440000000000000000600082015250565b60006133c1601883612a78565b91506133cc8261338b565b602082019050919050565b600060208201905081810360008301526133f0816133b4565b9050919050565b7f4552433732313a2061646472657373207a65726f206973206e6f74206120766160008201527f6c6964206f776e65720000000000000000000000000000000000000000000000602082015250565b6000613453602983612a78565b915061345e826133f7565b604082019050919050565b6000602082019050818103600083015261348281613446565b9050919050565b600081905092915050565b600061349f82612a6d565b6134a98185613489565b93506134b9818560208601612a89565b80840191505092915050565b60006134d18284613494565b915081905092915050565b60006134e88285613494565b91506134f48284613494565b91508190509392505050565b600061350c8385613489565b9350613519838584612d5c565b82840190509392505050565b6000613532828486613500565b91508190509392505050565b7f6e6f7420656e6f756768206d6174696300000000000000000000000000000000600082015250565b6000613574601083612a78565b915061357f8261353e565b602082019050919050565b600060208201905081810360008301526135a381613567565b9050919050565b7f2e00000000000000000000000000000000000000000000000000000000000000600082015250565b60006135e0600183613489565b91506135eb826135aa565b600182019050919050565b60008190508160005260206000209050919050565b60008154613618816131a3565b6136228186613489565b9450600182166000811461363d576001811461364e57613681565b60ff19831686528186019350613681565b613657856135f6565b60005b838110156136795781548189015260018201915060208101905061365a565b838801955050505b50505092915050565b6000613697828587613500565b91506136a2826135d3565b91506136ae828461360b565b9150819050949350505050565b60006136c7828661360b565b91506136d38285613494565b91506136df828461360b565b9150819050949350505050565b7f7b226e616d65223a222000000000000000000000000000000000000000000000600082015250565b6000613722600a83613489565b915061372d826136ec565b600a82019050919050565b7f222c20226465736372697074696f6e223a20224120646f6d61696e206f6e206260008201527f616e616e6120646e73222c2022696d616765223a2022646174613a696d61676560208201527f2f7376672b786d6c3b206261736536342c200000000000000000000000000000604082015250565b60006137ba605283613489565b91506137c582613738565b605282019050919050565b7f222c224c656e677468223a227d00000000000000000000000000000000000000600082015250565b6000613806600d83613489565b9150613811826137d0565b600d82019050919050565b7f227d000000000000000000000000000000000000000000000000000000000000600082015250565b6000613852600283613489565b915061385d8261381c565b600282019050919050565b600061387382613715565b915061387f8286613494565b915061388a826137ad565b91506138968285613494565b91506138a1826137f9565b91506138ad8284613494565b91506138b882613845565b9150819050949350505050565b7f646174613a206170706c69636174696f6e2f6a736f6e3b6261736536342c0000600082015250565b60006138fb601e83613489565b9150613906826138c5565b601e82019050919050565b600061391c826138ee565b91506139288284613494565b915081905092915050565b6000604082019050818103600083015261394d8185612acd565b905081810360208301526139618184612acd565b90509392505050565b7f4552433732313a207472616e736665722066726f6d20696e636f72726563742060008201527f6f776e6572000000000000000000000000000000000000000000000000000000602082015250565b60006139c6602583612a78565b91506139d18261396a565b604082019050919050565b600060208201905081810360008301526139f5816139b9565b9050919050565b7f4552433732313a207472616e7366657220746f20746865207a65726f2061646460008201527f7265737300000000000000000000000000000000000000000000000000000000602082015250565b6000613a58602483612a78565b9150613a63826139fc565b604082019050919050565b60006020820190508181036000830152613a8781613a4b565b9050919050565b7f4552433732313a20617070726f766520746f2063616c6c657200000000000000600082015250565b6000613ac4601983612a78565b9150613acf82613a8e565b602082019050919050565b60006020820190508181036000830152613af381613ab7565b9050919050565b7f4552433732313a207472616e7366657220746f206e6f6e20455243373231526560008201527f63656976657220696d706c656d656e7465720000000000000000000000000000602082015250565b6000613b56603283612a78565b9150613b6182613afa565b604082019050919050565b60006020820190508181036000830152613b8581613b49565b9050919050565b7f4e487b7100000000000000000000000000000000000000000000000000000000600052603260045260246000fd5b7f4e487b7100000000000000000000000000000000000000000000000000000000600052601160045260246000fd5b6000613bf582612b28565b9150613c0083612b28565b9250827fffffffffffffffffffffffffffffffffffffffffffffffffffffffffffffffff03821115613c3557613c34613bbb565b5b828201905092915050565b6000613c4b82612b28565b91507fffffffffffffffffffffffffffffffffffffffffffffffffffffffffffffffff821415613c7e57613c7d613bbb565b5b600182019050919050565b7f4e487b7100000000000000000000000000000000000000000000000000000000600052601260045260246000fd5b60006080820190508181036000830152613cd28187612acd565b90508181036020830152613ce68186612acd565b90508181036040830152613cfa8185612acd565b9050613d096060830184612e51565b95945050505050565b6000613d1d82612b28565b9150613d2883612b28565b925082613d3857613d37613c89565b5b828204905092915050565b6000613d4e82612b28565b9150613d5983612b28565b9250817fffffffffffffffffffffffffffffffffffffffffffffffffffffffffffffffff0483118215151615613d9257613d91613bbb565b5b828202905092915050565b7f45524337323155524953746f726167653a2055524920736574206f66206e6f6e60008201527f6578697374656e7420746f6b656e000000000000000000000000000000000000602082015250565b6000613df9602e83612a78565b9150613e0482613d9d565b604082019050919050565b60006020820190508181036000830152613e2881613dec565b9050919050565b6000613e3a82612b28565b9150613e4583612b28565b925082821015613e5857613e57613bbb565b5b828203905092915050565b600081519050919050565b600082825260208201905092915050565b6000613e8a82613e63565b613e948185613e6e565b9350613ea4818560208601612a89565b613ead81612abc565b840191505092915050565b6000608082019050613ecd6000830187612bbd565b613eda6020830186612bbd565b613ee76040830185612e51565b8181036060830152613ef98184613e7f565b905095945050505050565b600081519050613f13816129de565b92915050565b600060208284031215613f2f57613f2e6129a8565b5b6000613f3d84828501613f04565b91505092915050565b7f4552433732313a206d696e7420746f20746865207a65726f2061646472657373600082015250565b6000613f7c602083612a78565b9150613f8782613f46565b602082019050919050565b60006020820190508181036000830152613fab81613f6f565b9050919050565b7f4552433732313a20746f6b656e20616c7265616479206d696e74656400000000600082015250565b6000613fe8601c83612a78565b9150613ff382613fb2565b602082019050919050565b6000602082019050818103600083015261401781613fdb565b905091905056fe0a2d2d2d2d2d2d2d2d2d2d2d2d2d2d2d2d2d2d2d2d2d2d2d2d2d2d2d2d2d2d2d2d2d2d2d2d2d2d2d2d2d2d2d2d2d2d2d2d2d2d2d2d2d2d2d2d2d2d2d2d2d2d2d2d2d2d2d2d2d2d2d2d2d2d2d2d2d2d2d2d2d2d2d2d2d2d2d2d2d2d2d2d2d2d2d2d2d2d2d2d2d2d2d2d2d2d2d2d2d2d2d2d0a7265676973746572696e672025732e2573206f6e2074686520636f6e7472616374207769746820746f6b656e49642025644142434445464748494a4b4c4d4e4f505152535455565758595a6162636465666768696a6b6c6d6e6f707172737475767778797a303132333435363738392b2fa264697066735822122075cc40aef77e3e96d680f1ab713e8444b59df7dec0363858856b91718283dfac64736f6c634300080a00333c73766720786d6c6e733d22687474703a2f2f7777772e77332e6f72672f323030302f737667222077696474683d2232373022206865696768743d22323730222066696c6c3d226e6f6e65223e3c706174682066696c6c3d2275726c282342292220643d224d302030683237307632373048307a222f3e3c646566733e3c66696c7465722069643d22412220636f6c6f722d696e746572706f6c6174696f6e2d66696c746572733d2273524742222066696c746572556e6974733d227573657253706163654f6e55736522206865696768743d22323730222077696474683d22323730223e3c666544726f70536861646f772064783d2230222064793d22312220737464446576696174696f6e3d22322220666c6f6f642d6f7061636974793d222e323235222077696474683d223230302522206865696768743d2232303025222f3e3c2f66696c7465723e3c2f646566733e3c7061746820643d224d37322e3836332034322e393439632d2e3636382d2e3338372d312e3432362d2e35392d322e3139372d2e3539732d312e3532392e3230342d322e3139372e35396c2d31302e30383120362e3033322d362e383520332e3933342d31302e30383120362e303332632d2e3636382e3338372d312e3432362e35392d322e3139372e3539732d312e3532392d2e3230342d322e3139372d2e35396c2d382e3031332d342e37323161342e353220342e35322030203020312d312e3538392d312e363136632d2e3338342d2e3636352d2e3539342d312e3431382d2e3630382d322e313837762d392e3331632d2e3031332d2e3737352e3138352d312e3533382e3537322d322e32303861342e323520342e323520302030203120312e3632352d312e3539356c372e3838342d342e3539632e3636382d2e33383720312e3432362d2e353920322e3139372d2e353973312e3532392e32303420322e3139372e35396c372e38383420342e353961342e353220342e353220302030203120312e35383920312e363136632e3338342e3636352e35393420312e3431382e36303820322e31383776362e3033326c362e38352d342e303635762d362e303332632e3031332d2e3737352d2e3138352d312e3533382d2e3537322d322e32303861342e323520342e32352030203020302d312e3632352d312e3539354c34312e3435362032342e3539632d2e3636382d2e3338372d312e3432362d2e35392d322e3139372d2e3539732d312e3532392e3230342d322e3139372e35396c2d31342e38363420382e36353561342e323520342e32352030203020302d312e36323520312e353935632d2e3338372e36372d2e35383520312e3433342d2e35373220322e3230387631372e343431632d2e3031332e3737352e31383520312e3533382e35373220322e32303861342e323520342e323520302030203020312e36323520312e3539356c31342e38363420382e363535632e3636382e33383720312e3432362e353920322e3139372e353973312e3532392d2e32303420322e3139372d2e35396c31302e3038312d352e39303120362e38352d342e3036352031302e3038312d352e393031632e3636382d2e33383720312e3432362d2e353920322e3139372d2e353973312e3532392e32303420322e3139372e35396c372e38383420342e353961342e353220342e353220302030203120312e35383920312e363136632e3338342e3636352e35393420312e3431382e36303820322e31383776392e333131632e3031332e3737352d2e31383520312e3533382d2e35373220322e32303861342e323520342e32352030203020312d312e36323520312e3539356c2d372e38383420342e373231632d2e3636382e3338372d312e3432362e35392d322e3139372e3539732d312e3532392d2e3230342d322e3139372d2e35396c2d372e3838342d342e353961342e353220342e35322030203020312d312e3538392d312e363136632d2e3338352d2e3636352d2e3539342d312e3431382d2e3630382d322e313837762d362e3033326c2d362e383520342e30363576362e303332632d2e3031332e3737352e31383520312e3533382e35373220322e32303861342e323520342e323520302030203020312e36323520312e3539356c31342e38363420382e363535632e3636382e33383720312e3432362e353920322e3139372e353973312e3532392d2e32303420322e3139372d2e35396c31342e3836342d382e363535632e3635372d2e33393420312e3230342d2e393520312e3538392d312e363136732e3539342d312e3431382e3630392d322e3138375635352e353338632e3031332d2e3737352d2e3138352d312e3533382d2e3537322d322e32303861342e323520342e32352030203020302d312e3632352d312e3539356c2d31342e3939332d382e3738367a222066696c6c3d2223666666222f3e3c646566733e3c6c696e6561724772616469656e742069643d2242222078313d2230222079313d2230222078323d22323730222079323d2232373022206772616469656e74556e6974733d227573657253706163654f6e557365223e3c73746f702073746f702d636f6c6f723d2223636235656565222f3e3c73746f70206f66667365743d2231222073746f702d636f6c6f723d2223306364376534222073746f702d6f7061636974793d222e3939222f3e3c2f6c696e6561724772616469656e743e3c2f646566733e3c7465787420783d2233322e352220793d223233312220666f6e742d73697a653d223237222066696c6c3d2223666666222066696c7465723d2275726c282341292220666f6e742d66616d696c793d22506c7573204a616b617274612053616e732c44656a6156752053616e732c4e6f746f20436f6c6f7220456d6f6a692c4170706c6520436f6c6f7220456d6f6a692c73616e732d73657269662220666f6e742d7765696768743d22626f6c64223e",
    "linkReferences": {},
    "deployedLinkReferences": {}
}